:020000040800F2
:10000000300800205DEB000881EE000885EE000856
:1000100089EE00088DEE000891EE00080000000057
:1000200000000000000000000000000095EE000845
:1000300099EE0008000000009DEE0008893B0008D2
:10004000F93A00081D420008A1EE0008A13200089C
:10005000A5EE00080D4D00081F2600083B260008ED
:1000600057260008732600088F260008A9EE00080E
:10007000ADEE0008B1EE0008B5EE0008B9EE0008DC
:10008000BDEE0008C1EE0008C5EE0008C9EE00088C
:10009000CDEE0008D1EE0008D5EE0008AB26000832
:1000A000D9EE0008DDEE0008D34B0008D335000878
:1000B0006B4C0008E1EE0008E5EE0008E9EE0008F0
:1000C000EDEE0008F1EE0008F5EE0008F9EE00088C
:1000D000FDEE0008D14E000801EF000805EF000812
:1000E00061270008E132000809EF00080DEF000861
:1000F00011EF0008DFF8502DD063DFF84C2D1164AC
:10010000704701B582B09DF808009DF8091089007C
:1001100051EAC0009DF80A1050EA41009DF80B100A
:1001200008438DF800000420DFF81C1D81F8500002
:1001300001226946842001F084F907BD01B501223E
:100140006946802001F07DF99DF80000002805D166
:100150000520DFF8F41C81F8500004E00520DFF8EA
:10016000E81C81F8500001BD10B582B004002000E9
:1001700080B2000A8DF8000020008DF801000222F4
:100180006946972001F05DF913BD01B5012269466A
:10019000962001F056F901BD80B500220021D5203E
:1001A00001F04FF901BD01B5012269468A2001F035
:1001B00048F901BD01B582B00122694640F6CD1073
:1001C00001F0B9F99DF8000010F0F0009DF808105A
:1001D00011F00F0108438DF80800012202A940F632
:1001E000CD1001F07BF907BD38B504000D008DF886
:1001F00000408DF80150022269468F2001F021F95C
:1002000031BDF0B583B004000D0016001F002000C2
:1002100080B2000A8DF8000020008DF8010028004F
:1002200080B2000A8DF8020028008DF8030030002B
:1002300080B2000A8DF8040030008DF80500380007
:1002400080B2000A8DF8060038008DF807000822F9
:1002500069468D2001F0F5F8F7BD80B502226946A8
:10026000152001F014F99DF801009DF8001050EAE6
:10027000012080B202BD10B582B004000020DFF87A
:10028000C81B81F85000DFF8C00BA0F854400020D4
:10029000DFF8B41B81F856000020DFF8AC1B81F8B2
:1002A00052000120DFF8A01B81F857000020DFF882
:1002B000981B81F8580001200090DFF88C3B0FF666
:1002C0009532DFF8881BDFF8800B01F056FA002228
:1002D0000FF62931DFF8780B01F035FB01F06AF8F1
:1002E00001F0BFF901F0A6F80120FFF74EFF012051
:1002F000DFF8541B81F8510000F06DFA13BD0100C6
:10030000DFF8440B90F85A00002804D189B2FF2985
:100310000CDD00200BE0DFF8300B90F85A000128CC
:1003200004D189B2802901DB002000E00120704760
:1003300038B504000D000020DFF80C1B81F85000D8
:100340000020FFF7FBFE207DDFF8FC1A81F8520049
:100350004FF6FF70FFF708FF2078002808D1012032
:10036000DFF8E41A81F851000120FFF71CFF0AE0D2
:100370002078012807D10120DFF8CC1A81F851003C
:100380000320FFF710FFE278A178607800F0C4FA4C
:1003900000210020FFF728FF2078002805D1290040
:1003A000C9B2200001F0A2FC07E02078012804D1A6
:1003B0002900C9B2200001F0A5FCDFF8200D2100C2
:1003C000162201F01DFF012000F028FF31BD2DE9AC
:1003D000F84304000D0016001F005FF00008DFF86E
:1003E000680A90F85E00032803D1DFF8F40C804619
:1003F00012E0DFF8540A90F85E00042803D1DFF819
:10040000E40C804608E0DFF8400A90F85E0005281A
:1004100002D1DFF8D40C804600F0AEF8002865D099
:100420004FF6FF70FFF7A0FE0020FFF787FE0220C7
:10043000FFF7B9FEDFF8A40C01F03EFB2900C9B2BA
:10044000DFF8980C01F0C0FBDFF8FC0990F85D20A4
:10045000DFF8F40990F85C10DFF8EC0990F85B0025
:1004600000F05AFAE4B2002C03D0300000F0ABFAEE
:1004700002E0300000F0BDFADFF8CC0990F85F0030
:1004800008EB400030F80A9C484600B200F0C7FA7A
:10049000DFF8B40990F9610040B200F072FAE4B2FA
:1004A000002C08D0002300224FF4C0614FF4C0603C
:1004B000FFF7A7FE07E0002300224FF418614FF476
:1004C0001860FFF79EFEDFF880094764E4B2002C55
:1004D00005D00620DFF8701981F8500004E00720ED
:1004E000DFF8641981F85000012000E00020BDE829
:1004F000F28310B5002400F03FF8002835D0DFF873
:10050000480990F85E0003280AD14FF4C070DFF864
:10051000381991F85F10D1F10A010841040020E078
:10052000DFF8240990F85E0004280AD14FF4C07067
:10053000DFF8141991F85F10D1F10B0108410400A4
:100540000FE0DFF8040990F85E00052809D14FF4A8
:10055000C070DFF8F41891F85F10D1F10C01084178
:100560000400A4B21E2C04DA01E01E2003E01E20C9
:100570000400200080B210BDDFF8CC0890F85F00C6
:10058000052813DBDFF8C00890F85F000B280DDAB0
:10059000DFF8B40890F85E00032807DBDFF8A8084E
:1005A00090F85E00062801DA012000E00020704784
:1005B00010B582B004008DF8004001226946A320E6
:1005C00000F03FFF13BD10B582B0040002208DF88B
:1005D0000000200080B2000A8DF8010020008DF894
:1005E00002000120FFF7E4FF03226946832000F0A8
:1005F00028FF00F023FE0620DFF84C1881F8500099
:1006000013BD10B582B0040002208DF80000200058
:1006100080B2000A8DF8010020008DF80200002051
:10062000FFF7C6FF03226946822000F00AFF00F0B0
:1006300005FE0720DFF8101881F8500013BD38B50B
:100640000400002500F0CCFD002813D120780128FB
:1006500004D17F212000FFF76BFE03E00021200082
:10066000FFF766FE0120FFF7A5FD802001F03FFEA9
:10067000012005002800C0B232BD70B504000D0095
:10068000002600F0ADFD00280BD12900C9B22000E2
:10069000FFF74EFE94F9070040B200F072F9012016
:1006A00006003000C0B270BD0100DFF89C07816415
:1006B0000120704701000020C9B20A00002A012A67
:1006C00006D8DFF8842782F8571001221000FFE7D0
:1006D000C0B2704710B582B0DFF86C0790F85000D8
:1006E000022801D101205BE0DFF85C07806C002864
:1006F00003D000F075FD002801D0002050E002205A
:100700008DF80000DFF8400790F85700002802D06D
:10071000012809D011E0FF208DF80100FF208DF89D
:1007200002004220040008E000208DF801000020B3
:100730008DF8020044F24200040000230022210050
:1007400089B2200080B2FFF75CFD01220221DFF8B0
:10075000980B02F0C7F90FF611120221DFF8880B8F
:1007600001F01CFF00224FF40061DFF87C0B02F067
:10077000B9F900222021DFF8700B02F0B3F94FF62F
:10078000FF70FFF7F1FC03226946822000F059FE5A
:1007900000F054FD0220DFF8B01681F8500001206F
:1007A00016BD80B500208DF8000000208DF80100F6
:1007B00000208DF8020001208DF803000020FFF7D3
:1007C000BDFCFFF7E9FC0098FFF79BFC802001F0DF
:1007D0009EFD012002BD80B50020FFF7AFFC802008
:1007E00001F095FD012002BD80B5DFF85C0690F8B0
:1007F0005000052805D0DFF8500690F85000042876
:1008000011D1DFF8440690F85100002803D04FF6CC
:10081000FF70FFF7A9FCDFF8300690F850000428BD
:1008200001D1FFF7BEFF012000F075FD01BD80B5CD
:10083000012000F0A3FD4FF6FF70FFF795FC01BD0E
:1008400070B582B0040000F0CBFC002801D1002C70
:1008500001D100205AE044F20106002300223100B9
:1008600089B2300080B2FFF7CCFC01220221DFF810
:10087000780A02F037F90FF2F1720221DFF8680A04
:1008800001F08CFE00224FF40061DFF85C0A02F0F8
:1008900029F900222021DFF8500A02F023F9002272
:1008A0000021C12000F0CDFD00F0C8FC2278611CC1
:1008B000002000F086FE4FF6FF70FFF755FC022087
:1008C0008DF8000000208DF8010000208DF8020056
:1008D00003226946832000F0B4FD0120DFF868158B
:1008E00081F85000DFF86005C464207800F0D9F882
:1008F0000500C4F80051202215F10A000121B0FBC7
:10090000F1F1DFF8E80901F047F8012076BDDFF8E2
:100910003815A1F854007047F8B504000D00160012
:10092000E4B2EDB254EA052080B2F6B250EA0640D5
:100930000700DFF8BC09874209D2B8208DF8000013
:10094000C4208DF80100ED208DF8020013E0DFF8DF
:10095000A409874209D3BE208DF80000C4208DF879
:100960000100EC208DF8020005E08DF800608DF8A4
:1009700001508DF8024003226946862000F061FD97
:10098000F1BD10B582B00400DFF8BC0490F8580047
:10099000241A64B214F1120F03DA7FF0110004007C
:1009A00004E064B20E2C01DB0D20040014F11200EF
:1009B0008DF80000E0208DF80100022269468E20AB
:1009C00000F03FFD13BD10B582B0040020168DF875
:1009D000000020148DF8010020128DF80200200084
:1009E0008DF803000422694640F6121000F076FDEF
:1009F00013BD10B582B0040020168DF8000020143D
:100A00008DF8010020128DF8020020008DF80300FF
:100A10000422694640F6161000F060FD13BD10B5C3
:100A200082B0040024B220128DF8000020008DF85E
:100A300001000222694640F62C1000F04FFD13BD64
:100A400070B5002440F67F1000F0AFFD50F00205B5
:100A50002900C9B240F67F1000F09EFD40F6241038
:100A600000F0A3FD10F0CF0005002900C9B240F648
:100A7000241000F091FD40F6611000F096FD060094
:100A800040F6621000F091FDF6B2C0B2000250EAEA
:100A9000064640F6631000F088FD30430400200055
:100AA00070BD10B50400DFF8A00390F85A000028CC
:100AB00006D1DFF828162000C0B201F095F90DE04C
:100AC000DFF8840390F85A00012806D1DFF80C16ED
:100AD0002000C0B201F01AFB00E0002010BD30B5CC
:100AE00087B00400002560788DF80700A0788DF8A5
:100AF0000000E0788DF8010020798DF8020060791F
:100B00008DF80300A0798DF80400E0798DF80500D8
:100B1000207A8DF80600A0798DF8080000208DF865
:100B2000090000208DF8130000208DF80A00002035
:100B30008DF80B0000208DF80C0012208DF80E00AF
:100B400000208DF8140000208DF80D0040F2FF30D9
:100B5000ADF8100005208DF8120000208DF815006A
:100B60002078002811D0012833D0022800F0098114
:100B7000052877D007281AD0082856D0092800F071
:100B8000CD800A2800F0998031E19DF803209DF87E
:100B900002109DF80100FFF7BFFE9DF9070040B26B
:100BA000FFF7EFFEFFF7FDFD0120050021E19DF8B5
:100BB00003209DF802109DF80100FFF7ADFE9DF99E
:100BC000070040B2FFF7DDFEFFF705FE012005003C
:100BD0000FE100208DF8000002208DF804000520B0
:100BE0008DF8050001208DF806006846FFF727FD07
:100BF0000020FFF7A3FA0120FFF7C7FA9DF80320B2
:100C00009DF802109DF80100FFF786FE9DF9070090
:100C100040B2FFF7B6FE00220021D12000F011FC07
:100C200000F00CFB01200500E3E00020FFF786FA4E
:100C30000020FFF7AAFA9DF803209DF802109DF806
:100C40000100FFF769FE9DF9070040B2FFF799FE2A
:100C500000220021D12000F0F4FB00F0EFFA012087
:100C60000500C6E09DF8000000280DD1012076495E
:100C700081F851006846FFF7E2FC0020FFF71AFDFB
:100C8000FFF728FD050017E09DF8000001280DD1B1
:100C900001206D4981F851006846FFF7D0FC002023
:100CA000FFF708FDFFF716FD050005E00020664987
:100CB00081F85100002005009BE09DF8000000280D
:100CC00010D10120604981F851006846FFF7B7FC58
:100CD0000020FFF75AFA0020FFF7ECFCFFF7FAFCC0
:100CE00005001AE09DF80000012810D101205649A6
:100CF00081F851006846FFF7A2FC0020FFF745FA93
:100D00000020FFF7D7FCFFF7E5FC050005E0002019
:100D10004D4981F85100002005006AE09DF800006F
:100D2000002811D10120484981F85100002168466E
:100D3000FFF7A3FC00220021D22000F082FB00F08C
:100D40007DFA012005001BE09DF80000012811D16B
:100D500001203D4981F8510000216846FFF78DFCD4
:100D600000220021D22000F06CFB00F067FA012085
:100D7000050005E00020344981F8510000200500FD
:100D800037E00020050000F02BFA00282ED19DF856
:100D900000002D4981F85A009DF8000000280DD16F
:100DA0000120294981F8510000216846FFF765FCC0
:100DB00042F2107000F0C1F9050017E09DF8000044
:100DC00001280DD10120204981F8510000216846F9
:100DD000FFF753FC42F2107000F0AFF9050005E098
:100DE0000020194981F851000020050001E0002091
:100DF00005002800C0B207B030BD000010B50400E7
:100E0000114890F85000012804D120210E4800F02C
:100E10000FFDFFE710BD38B50400012500200A4989
:100E200081F850000848006C00280AD02100C9B29F
:100E30000548C06C044A126C904705000020024926
:100E4000C8642800C0B232BD641D002068EE0008EE
:100E5000841D00202DE9F84304000025DFF89804E4
:100E600000F000FD0600700755D5DFF88C0490F8FF
:100E7000500003284FD1DFF88004806C002845D053
:100E8000DFF87404C06B00282ED0DFF86C04876C88
:100E90000020DFF864148864FFF7DFF980464FF61E
:100EA000FF70FFF761F95FEA486007D5022138005B
:100EB000DFF84424D26B9047050015E0DFF83804D2
:100EC00090F8510000280FD0DFF82C0490F85A1049
:100ED000380000F03AFF81464946C9B23800DFF8D1
:100EE0001824D26B90470500DFF80C0490F85700E7
:100EF000012805D10520DFF8001481F850000AE030
:100F00000220DFF8F41381F8500004E00421DFF838
:100F1000E80300F08DFCDFF8E00390F850000128B2
:100F200019D1F00611D5DFF8C40300F050FDDFF849
:100F3000C80390F85100002803D04FF6FF70FFF768
:100F400013F90920FFF767FF0500B00603D50B2052
:100F5000FFF761FF0500B00422D5FFF77EF9070017
:100F60004FF6FF70FFF700F9BFB2780509D5DFF83B
:100F70008803406C002804D00020DFF87C13496C03
:100F80008847BFB2B80509D5DFF86C03406C00286C
:100F900004D00120DFF86013496C88470520050064
:100FA000700435D5FFF759F907004FF6FF70FFF7CA
:100FB000DBF8BFB2F80508D5DFF83C03406C002829
:100FC00003D00020CC49496C8847BFB2380507D50B
:100FD000C948406C002803D00120C749496C8847A4
:100FE000BFB2380607D5C448406C002803D00120A2
:100FF000C149496C8847BFB2780407D5BE48406CE8
:10100000002803D00020BC49496C88470520050012
:10101000300412D5FFF721F907004FF6FF70FFF7F4
:10102000A3F8BFB2F80706D54FF6FF7000F085F8B9
:101030000520050001E002200500EDB2012D04D0DD
:101040000CD3032D07D003D308E0FFF7AAFB05E07C
:10105000FFF7C1FB02E0FFF73DFBFFE7A64800F00A
:10106000CDFBBDE8F183000038B504000D00A248B7
:1010700090F85000012818D0022806D0062819D070
:1010800007281DD0082821D026E003209A4981F89E
:1010900050000421984800F0CBFB9748806C4FF437
:1010A0008071084401F0CEFF16E01021924800F054
:1010B000BFFB11E04FF400518F4800F0B9FB0BE08B
:1010C0004FF480418C4800F0B3FB05E04FF4004141
:1010D000894800F0ADFBFFE731BD0000BE1D0020D8
:1010E000CCED0008D8ED0008E4ED000810B582B0A2
:1010F000684600210160002440F6541000F055FAC3
:101100008DF8000040F6551000F04FFA8DF8010000
:1011100040F6561000F049FA8DF802009DF80000E4
:101120009DF80110090251EA00409DF802100843A1
:1011300004002403240B200016BD70B582B0040007
:101140006D4890F85A00012802D17820050001E08E
:10115000FA20050044F2010600230022310089B282
:10116000300080B2FFF74DF8012202215E4801F005
:10117000B9FC624A02215C4801F010FA00224FF4E7
:101180000061594801F0AEFC00222021564801F0D0
:10119000A9FC00220021C12000F053F900F04EF814
:1011A0002A00D2B25649002000F00BFA4FF6FF7029
:1011B000FEF7DAFF02208DF80000200080B2000A5E
:1011C0008DF8010020008DF802000322694683207B
:1011D00000F037F90820484981F85000012076BD19
:1011E0000020454991F85010032913D0424991F845
:1011F000501001290ED0404991F85010062909D00D
:101200003D4991F85010072904D03B4991F85010FE
:10121000082901D101210800C0B2704738B5040087
:1012200040F6910000F0C1F950F0C000050029001F
:10123000C9B240F6910000F0AFF931BD38B52E4883
:10124000B0F9540000281FD42B48B0F954002028CE
:101250001ADA40F60E2000F0A8F910F0E000264956
:1012600091F8541011F01F010843040040F60F20BC
:1012700000F09BF910F0E0001F4991F8541011F0B4
:101280001F010843050021E01B48B0F95400002865
:101290000ED540F60E2000F088F910F0E0000400B2
:1012A00040F60F2000F081F910F0E00005000DE09D
:1012B00040F60E2000F079F950F01F00040040F6CF
:1012C0000F2000F072F950F01F0005002100C9B294
:1012D00040F60E2000F060F92900C9B240F60F2058
:1012E00000F05AF931BD000000040240841D0020C6
:1012F000EDC4B800EDC4BE00641D002069100008F4
:101300001CE7000880B50121DFF8DC0301F06AFB6F
:101310000128F8D001BD10B5040002220221DFF837
:10132000C80301F0F0FA02224FF40061DFF8B803BD
:1013300001F0E9FA02222021DFF8AC0301F0E3FA20
:1013400001220121DFF8A00301F0DDFA0222802151
:10135000DFF8980301F0D7FA02222021DFF88C038E
:1013600001F0D1FA02224021DFF8800301F0CBFA2C
:1013700001221021DD4801F0C6FA10BD1CB50400A1
:1013800001F0D6FF01208DF8040003208DF8050040
:1013900000208DF8060001208DF8070001221021A1
:1013A000D24802F08FF8102000906946CF4802F032
:1013B00035F813BD80B544F6206002F01AF901201B
:1013C00000F00CF84CF2503002F013F9002000F05D
:1013D00005F844F6206002F00CF901BD1CB50400CC
:1013E000E4B2012C14D100220221C04802F06AF8B4
:1013F00001208DF8040000208DF8060003208DF8F0
:101400000500022000906946B84802F007F810E095
:1014100001220221B54802F055F800208DF80400A1
:1014200003208DF80500022000906946AF4801F0C6
:10143000F5FF13BD80B50122AD49C02000F027F8AB
:1014400001BDF8B504000D00160000221021A748C8
:1014500002F038F82000C0B201F0C9FF00200700F8
:1014600038003100C0B2C9B2884205D2FFB2E85D8F
:1014700001F0BDFF7F1CF3E7012210219B4802F021
:1014800021F8E4B2842C01D0FFF73CFFF1BDF8B5A0
:1014900004000D00160000221021944802F012F8FA
:1014A0002000C0B201F0A3FF002001F0A0FF002047
:1014B000070038003100C0B2C9B2884206D200200D
:1014C00001F095FFFFB2E8557F1CF2E701221021E1
:1014D000864801F0F7FFFFF715FFF1BDF8B50400EE
:1014E0000D00160000221021804801F0EBFF1820AB
:1014F00001F07DFF200080B2000AC0B201F077FF4A
:101500002000C0B201F073FF002007003800C0B215
:10151000310080B289B2884205D2FFB2E85D01F0A5
:1015200066FF7F1CF2E701221021704801F0CAFF1C
:10153000FFF7E8FEF1BDF8B504000D00160000222B
:1015400010216A4801F0BEFF192001F050FF200071
:1015500080B2000AC0B201F04AFF2000C0B201F020
:1015600046FF002001F043FF002007003800C0B212
:10157000310080B289B2884206D2002001F037FFE4
:10158000FFB2E8557F1CF1E701221021574801F016
:1015900099FFFFF7B7FEF1BD13B50400012201A9C1
:1015A000200080B2FFF79AFF13BD10B582B004008F
:1015B00001226946200080B2FFF7BDFF9DF80000C0
:1015C00016BDF8B504000D00160000221021474892
:1015D00001F078FF1A2001F00AFF2000C0B201F0EC
:1015E00006FF0020070038003100C0B2C9B28842AF
:1015F00005D2FFB2E85D01F0FAFE7F1CF3E701229D
:1016000010213A4801F05EFFFFF77CFEF1BDF8B50E
:1016100004000D00160000221021344801F052FF92
:101620001B2001F0E4FE2000C0B201F0E0FE00202B
:1016300001F0DDFE0020070038003100C0B2C9B261
:10164000884206D2002001F0D2FEFFB2E8557F1C8E
:10165000F2E701221021254801F034FFFFF752FE86
:10166000F1BD00B583B001F063FE0121072002F057
:101670003BF901208DF8040003208DF805000020BF
:101680008DF8060001208DF807000122102117486F
:1016900001F018FF102000906946144801F0BEFECA
:1016A00000208DF8040002208DF8050002208DF83E
:1016B00007000220009069460B4801F0AFFE4FF48E
:1016C000006000906946084801F0A8FE20200090C4
:1016D0006946054801F0A2FE0120009069460248D3
:1016E00001F09CFE07BD0000000402400000024023
:1016F000C821002000207149086000206F4948601F
:1017000000206E49C860704710B56C484468002CD2
:1017100009D0207A022804D1606961688847674847
:10172000C460E469F3E710BD38B502F0BBF9634863
:101730000568002D0DD002F0DAF9FFF7E5FF287AF1
:10174000022804D16869696888475C48C560ED690A
:10175000EFE7EFF31080040072B600F094F8002871
:1017600005D100F09DF8002801D100F0ECFDE00764
:1017700001D572B6DBE762B6D9E770B40500039C09
:10178000002D21D0100000281ED06A606B612C72E1
:101790000020E860002028762960E4B2022C02D103
:1017A0000120286101E000202861EFF3108672B665
:1017B00042480068E86141480560F00701D572B60B
:1017C00000E062B6012000E0002070BC704701001C
:1017D000002911D0EFF3108272B602200872086956
:1017E000FF2802D20869401C0861D00701D572B6F3
:1017F00000E062B6012000E00020704701000029EF
:1018000014D0EFF3108272B60869002802D008697C
:10181000401E08610869002801D101200872D00724
:1018200001D572B600E062B6012000E000207047EA
:101830000200002A14D0EFF3108372B60220107257
:10184000D0680843D0601069FF2802D21069401C9C
:101850001061D80701D572B600E062B6012000E041
:10186000002070470100002000290BD0EFF3108208
:1018700072B6CB6818000023CB60D30701D572B6CF
:1018800000E062B670470D484168002906D0087A2A
:10189000022801D1012002E0C969F6E70020704763
:1018A00006480168002906D0087A022801D10120E3
:1018B00002E0C969F6E700207047000044210020DB
:1018C00010B579484468002C16D0207C012811D12D
:1018D000206800280BD1207A012802D1606820609E
:1018E00001E0002020746069E168884702E0206818
:1018F000401E2060A469E6E710BD80B56A48006814
:10190000401C6949086068488068002802D0664821
:1019100080688047FFF7D4FF01BD80B50020624991
:10192000086000206049486000205F4988605F4887
:1019300002F024F90FF2191300220FF2E5015C48BE
:1019400000F0B8FC01BD0300002B0DD008000028FA
:101950000AD0D9601A720020187453484068986100
:1019600051484360012000E0002070470100002042
:10197000504A1368002B0DD013688B4207D11368AF
:101980009B69136002230B740123180002E01268A4
:101990001832EEE7C0B2704710B40300002B13D02A
:1019A000EFF3108472B6002901D101200100481E16
:1019B000586019605A6101201874E00701D572B6A9
:1019C00000E062B6012000E0002010BC704701007A
:1019D00000290BD0EFF3108272B600200874D007F4
:1019E00001D572B600E062B6012000E00020704729
:1019F00001000020002904D00A7C012A01D1012223
:101A00001000C0B2704701000020002904D00A7CF9
:101A1000012A01D10A681000704723480068704706
:101A20005FF0FF3120484268002A09D0107C01286D
:101A300004D11068884201D2106801009269F3E76E
:101A400011F1010F02D15FF0FF3000E00800704794
:101A500070B50400012002F086F80120B4FBF0F517
:101A6000002D1FD0104846680F48006828180E49FE
:101A70000860002E16D0307C012811D13068A842B1
:101A80000BD27069F1688847307A012802D17068FA
:101A9000306005E00020307402E03068401B3060A8
:101AA000B669E6E770BD000088200020FB1800083A
:101AB000942000208C20002010B582B004006079B2
:101AC000052802DA0520607104E060790D2801DB49
:101AD0000C206071607900018DF8000020790128E8
:101AE00007D01AD303280CD007D3052811D00CD364
:101AF00013E042208DF8010012E034208DF801003F
:101B00000EE026208DF801000AE018208DF8010073
:101B100006E00A208DF8010002E034208DF8010073
:101B2000A0798DF80200032269468B20FFF789FC1B
:101B300013BD10B582B004002079012809D020D34C
:101B400003280ED009D3052813D00ED3062814D0AD
:101B500017E0EB208DF8000016E0C7208DF800009C
:101B600012E0AA208DF800000EE086208DF800001B
:101B70000AE069208DF8000006E045208DF800009D
:101B800002E0EB208DF80000A079012804D00FD3EB
:101B9000032809D004D30BE000208DF801000AE0EF
:101BA00002208DF8010006E004208DF8010002E01B
:101BB00000208DF8010010208DF8020003226946F4
:101BC0008B20FFF73EFC13BD30B583B004000D0041
:101BD00023208DF80000E07A002803D080208DF8C3
:101BE000010002E000208DF801008DF80250A07A7B
:101BF000002803D020208DF8030002E000208DF89B
:101C00000300E07C002803D000208DF8040002E0EF
:101C100040208DF8040000208DF8050000208DF88C
:101C20000600072269468C20FFF70BFC37BD30B554
:101C300083B004000D0070208DF8000004208DF8A2
:101C4000010010208DF8020020208DF803008DF88F
:101C5000045030208DF8050008208DF8060007227A
:101C600069468C20FFF7EDFB37BDF8B504000D0089
:101C7000002704200700E4B2012C04D00FD3032C6A
:101C800009D004D30BE040F6CF10060009E040F67F
:101C9000D410060005E040F6D910060001E001204E
:101CA00008E0FFB23A0092B22900300080B2FFF79C
:101CB00015FC0020F2BD10B504000222210040F600
:101CC000C810FFF70BFC10BD10B582B00400200057
:101CD00080B2000A8DF8000020008DF80100022279
:101CE000694640F6C610FFF7F9FB13BD38B504008E
:101CF0000D002000FFF7E0FE2900C9B22000FFF729
:101D000063FF31BD3EB504000D002000FFF711FF59
:101D10002900C9B22000FFF78AFF01A8DFF8D0131D
:101D2000D1E90023C0E9002301A90120FFF79DFFAD
:101D3000DFF8C0030088ADF800006846FFF7BBFF7E
:101D400040F22310FFF7C0FF37BD30B583B0040069
:101D50000D00052269461D20FFF799FBEDB2002D0D
:101D60001DD19DF800004042022190FBF1F0A4F843
:101D700004019DF80100802807DA9DF80100042184
:101D800090FBF1F084F806011EE09DF80100B0F52B
:101D90008070042190FBF1F084F8060114E0EDB2AC
:101DA000012D0BD19DF801004042022190FBF1F082
:101DB000A4F80401002084F8060105E00020A4F83E
:101DC0000401002084F80601022269461720FFF76B
:101DD0005EFB9DF8000020702278611C9DF80100D8
:101DE000FFF715FC00203EBD30B583B004000D00A8
:101DF000E87A8DF80500A8798DF8010068798DF8EA
:101E0000030028798DF80200A87A8DF8040069464D
:101E10002000C0B200F001F83EBD2DE9FC4F0200E9
:101E200000230024C8780B2802D0C8780C2802D1DF
:101E30000120040001E0002004008878022806D078
:101E400011D3042809D005D3052809D00BE0AA48EE
:101E500005000AE0A948050007E0A948050004E0DC
:101E6000A848050001E0A84805004878002873D07C
:101E70004878052870DAC878052802D0C87806287E
:101E80001DD10879002801D0102000E0002091F831
:101E900005C0BCF1000F02D05FF0000C01E05FF064
:101EA000140CD2B210EBC20091F80380B0EB8800A2
:101EB0001CEB00004FF47A7C0CFB00FC1DE0087961
:101EC000002801D0102000E0002091F805C0BCF1EE
:101ED000000F02D05FF0000C01E05FF0140CD2B2F2
:101EE00010EBC20091F80380B0EB88001CEB0000FF
:101EF00008304FF47A7C0CFB00FCBCF1000F01D5DC
:101F000000208446C878E4B2A4B2B0EB440080B2AA
:101F100080000600B6B29CFBF6F007004FF47A7022
:101F2000B7FBF0F086464FF47A70B7FBF0F800FB91
:101F30001870002806D0002F02D01EF1010E01E01B
:101F4000BEF1010E4878001D00FB0EF8CDF80480AC
:101F50000198083003008BE0C878052802D0C878C3
:101F6000062822D14879002801D0002000E0142062
:101F700091F80380D0EB88005FF0080890FBF8F040
:101F800091F80480B8F1000F02D05FF0100C01E06E
:101F90005FF0000CD2B21CEBC20C00B2BCEBC00074
:101FA0004FF47A7C0CFB00FC25E04879002801D036
:101FB000002000E0142091F803805FEA8808B8F15F
:101FC0000808B8EB00005FF0080890FBF8F091F803
:101FD0000480B8F1000F02D05FF0100C01E05FF058
:101FE000000CD2B21CEBC20C00B2BCEBC0004FF430
:101FF0007A7C0CFB00FCBCF1000F01D5002084466C
:1020000091F80180B8F1070F05D191F8018018F11E
:102010000108404602E091F801804046C0B200FB52
:102020000CFC91F80380E4B2A4B2B8EB44081FFAA8
:1020300088F85FEA88084646B6B29CFBF6F8474641
:102040004FF47A78B7FBF8F8C6464FF47A78B7FBC6
:10205000F8F908FB1978B8F1000F06D0002F02D06C
:102060001EF1010E01E0BEF1010E1EF1080843460B
:102070005FF00C085FF00009002091F803A0BAF1AE
:10208000050F04D091F803A0BAF1060F11D14FF457
:102090007A7ACDF800A01FFA88F84FF47A7B41F6DF
:1020A0006A0A0BFB08AADDF800B00BFB03AAD146B5
:1020B00010E04FF47A7ACDF800A01FFA88F84FF4B8
:1020C0007A7B41F29A0A0BFB08AADDF800B00BFB01
:1020D00003AAD1465FF0010A91F903B01AFA0BFA8C
:1020E0000AFB09FA5046B0FBF5F0401CBDE8F68F3C
:1020F00070EE000876220008F8180300F0310600A0
:10210000E0630C00A8CB1800A086010030B583B0B6
:1021100004000D00A8798DF8010028798DF80200DF
:1021200069462000C0B200F001F83EBD70B4020064
:102130000020012304242300DB1C1B1D4C78022CEF
:1021400002D0032C1BD01EE0D2B2D41DA400032564
:1021500094FBF5F605FB1644002C08D0D2B2D41D32
:10216000A400032594FBF5F4641CE31806E0D2B246
:10217000D41DA400032594FBF5F4E31807E0D2B2C4
:10218000D41DE31803E0D2B2D41D13EB4403DB00EB
:102190004FF47A7463438C78022C1FD024D3042C20
:1021A00010D015D3062C01D006D31DE040F21454F4
:1021B000B3FBF4F420001CE04FF48264B3FBF4F4AE
:1021C000200016E040F28A24B3FBF4F4200010E073
:1021D0004FF40274B3FBF4F420000AE040F245141B
:1021E000B3FBF4F4200004E04FF48274B3FBF4F486
:1021F00020004FF47A74B0FBF4F0401C70BC7047C0
:1022000062B38B0708D0521E11F8013B00F8013B66
:1022100000F024808B07F6D1830740F0208000BFB8
:10222000103A07D330B4B1E83810103AA0E83810AB
:10223000F9D230BC530724BFB1E80810A0E8081059
:1022400044BF51F8043B40F8043BD20724BF31F8A7
:10225000022B20F8022B44BF0B7803707047083A1A
:1022600007D3B1E80810083A40F8043B40F804CB23
:10227000F7D25307E4E7456780B50020DFF8401246
:1022800008600020DFF8381248810120DFF83012A2
:1022900008720020DFF82812C8600020DFF8201242
:1022A00008610020DFF818124861C046C04600F0FF
:1022B00041F801BD10B4002817D04360026081606E
:1022C0000024C460DFF8F8412468002C06D1DFF850
:1022D000F0412060DFF8E841606006E0DFF8E041AF
:1022E0006468E060DFF8D841606010BC7047EFF3CD
:1022F000108172B6DFF8C82152890243DFF8C0317D
:102300005A81CA0701D572B600E062B67047EFF392
:10231000108172B6DFF8A82152898243DFF8A0311C
:102320005A81CA0701D572B600E062B670476449A7
:10233000087270474FF460406149088346F20C30E0
:102340005F494883704770B55D48007A00287AD0AD
:102350005B484089002803D15948007A012801D1FF
:1023600030BF70E05648007A022813D100F06CF8B4
:1023700004005448844201D3534804000B2C62D318
:1023800000F078F8200001F0D9FC0500280000F0EA
:1023900088F858E04A48007A03281ED14A4D00F0D8
:1023A00053F8040001F0E1FE40F21641884202D1E8
:1023B0004FF47A600500A54203D214F1010F00D05A
:1023C0002C000B2C3FD300F055F8200001F000FC4E
:1023D0000400200000F065F835E03948007A042850
:1023E00031D100F031F8040014F1010F09D102F0ED
:1023F00031F800F03FF801F082FC002000F051F8C5
:1024000021E002F0B5F8002802D101F0E1FF1AE066
:102410002D4E00F019F8050001F0A7FE40F216411C
:10242000884202D14FF47A600600AE4200D23500F5
:102430000B2D08D300F01EF8280001F0C9FB0500A1
:10244000280000F02EF870BD70B55FF0FF345FF02B
:10245000FF351B480668002E0AD0B068002805D05A
:10246000B06880470500A54200D22C00F668F2E76C
:10247000200070BD10B51248018B144800F098FA86
:102480000F48418B124800F093FA0D480468002C65
:1024900006D02068002801D020688047E468F6E76D
:1024A00010BD38B5040006480568002D07D06868DF
:1024B000002802D0200069688847ED68F5E731BD43
:1024C000781C0020015C2605005C26050000024007
:1024D0000004024010B50400E4B22000102802D02D
:1024E00020281FD023E002F078FC0020FEF713FF25
:1024F00003F0EFFA002806D002F03AF8002804D1E1
:1025000001F066FF01E001F0A5FF002001F060FB93
:102510004FF40040FFF7EBFE02F06FFC0020FEF7E7
:102520002DFF04E00020FEF7F6FEC046C04610BDB9
:10253000012110F01F029140DFF84C2740B24309FF
:1025400042F8231070470100DFF840074018C0F33D
:10255000822070470100012200200300102B08DABE
:10256000080080B2104201D0180004E052005B1C49
:10257000F4E75FF0FF30704770B504000D001600FF
:10258000280080B2FFF7E6FF010011F1010F03D030
:1025900044F82160012000E0002070BDF8B504007F
:1025A0000D0016002000FFF7CEFF0700FFB2032F3B
:1025B00001DB00200BE03200290089B2DFF8D006F1
:1025C000FFB2402303FB07F31844FFF7D5FFF2BD2A
:1025D000F8B504000D00DFF8B806402101FB04F156
:1025E000084450F82500002818D0032C16DADFF82C
:1025F000A006402101FB04F1084450F82560DFF8F3
:1026000094764FF4806000FB04773000002805D0FA
:102610000120A840010089B23800B047F1BD10B5D3
:10262000012003F064FCDFF87006006810F00F046E
:1026300000212000FFF7CCFF10BD10B5022003F0F1
:1026400056FCDFF854060068C0F303140121200093
:10265000FFF7BEFF10BD10B5042003F048FCDFF803
:1026600038060068C0F3032402212000FFF7B0FF02
:1026700010BD10B5082003F03AFCDFF81C06006816
:10268000C0F3033403212000FFF7A2FF10BD10B5F3
:10269000102003F02CFCDFF80406006810F00F0493
:1026A00004212000FFF794FF10BD10B5202003F097
:1026B00011FC01280BD1202003F019FCDFF8DC0508
:1026C0000068C0F3031405212000FFF781FF4020BC
:1026D00003F000FC01280BD1402003F008FCDFF8D8
:1026E000BC050068C0F3032406212000FFF770FF3B
:1026F000802003F0EFFB01280BD1802003F0F7FBD3
:10270000DFF898050068C0F3033407212000FFF7C5
:102710005FFF4FF4807003F0DDFB01280CD14FF414
:10272000807003F0E4FBDFF87805006810F00F0418
:1027300008212000FFF74CFF4FF4007003F0CAFBA4
:1027400001280CD14FF4007003F0D1FBDFF85005E5
:102750000068C0F3031409212000FFF739FF10BD02
:1027600010B54FF4806003F0B5FB01280CD14FF495
:10277000806003F0BCFBDFF828050068C0F3032489
:102780000A212000FFF724FF4FF4006003F0A2FBB2
:1027900001280CD14FF4006003F0A9FBDFF800051D
:1027A0000068C0F303340B212000FFF711FF4FF442
:1027B000805003F08FFB01280CD14FF4805003F0C0
:1027C00096FBDFF8E004006810F00F040C212000F5
:1027D000FFF7FEFE4FF4005003F07CFB01280CD104
:1027E0004FF4005003F083FBDFF8B8040068C0F337
:1027F00003140D212000FFF7EBFE4FF4804003F09F
:1028000069FB01280CD14FF4804003F070FBDFF826
:1028100094040068C0F303240E212000FFF7D8FEC3
:102820004FF4004003F056FB01280CD14FF4004058
:1028300003F05DFBDFF86C040068C0F303340F2184
:102840002000FFF7C5FE10BD00B583B001210120B7
:1028500001F04AF80121022001F046F84FF6FF701E
:10286000009000208DF8050003208DF80400002062
:102870008DF8060000208DF807006946DFF828046F
:1028800000F0CCFD009830F4604000906946DFF81D
:10289000040400F0C3FD0121202001F025F80020F0
:1028A0008DF8040002208DF8070003208DF8050044
:1028B000032000906946DFF8F40300F0AFFD01212A
:1028C000042001F011F84FF4404000906946DFF811
:1028D000E00300F0A3FD0321C9B2002912D01022A9
:1028E0001000491EC0B20028F6D0401EDFF8A02319
:1028F000C9B2402303FB01F31A44C0B2002342F8DB
:102900002030EFE707BD7CB504000D001600F6B2DD
:10291000002E05D0022E11D009D3032E15D01AE0B7
:1029200000208DF8040000208DF8070013E000203F
:102930008DF8040001208DF807000CE000208DF8D0
:10294000040002208DF8070005E000208DF8070044
:1029500003208DF8040003208DF80500CD48844243
:102960000AD10121012000F0BFFFADB200956946F8
:10297000C84800F053FD1AE0CB4884420AD1012137
:10298000022000F0B1FFADB200956946C64800F0E4
:1029900045FD0CE0C648844209D10121042000F025
:1029A000A3FFADB200956946C14800F037FD73BD85
:1029B00030B583B004000D004FF6FF70009000208A
:1029C0008DF8050003208DF8040000208DF8060026
:1029D00000208DF80700ADB200956946200000F098
:1029E0001DFD37BD0200108A89B2084201D00120C6
:1029F00000E0002070470200908A89B2084201D0AE
:102A0000012000E0002070477CB504000D00160096
:102A100001208DF8040000208DF8060003208DF8B9
:102A200005009C48844211D10121012000F05CFF87
:102A3000ADB200956946974800F0F0FC3200D2B282
:102A4000009989B2934800F02FF828E09648844214
:102A500011D10121022000F047FFADB20095694677
:102A6000914800F0DBFC3200D2B2009989B28E4866
:102A700000F01AF813E08E48844210D1012104209E
:102A800000F032FFADB200956946894800F0C6FCFF
:102A90003200D2B2009989B2854800F005F873BDC2
:102AA000828A4A408282704770B504000D00160089
:102AB000F6B2002E05D1290089B2200000F00EF8F0
:102AC00007E0F6B2012E04D1290089B2200000F0FF
:102AD00001F870BD028B0A4302837047428B0A43A0
:102AE000428370472DE9F04184B004000D001600C8
:102AF000280080B2FFF72EFD804618F1010F00F08C
:102B0000C0800121012000F0FEFE6248844202D113
:102B1000002007000CE06448844202D10120070035
:102B200006E06348844202D10220070000E0A8E0EA
:102B3000ADB2019500208DF80800F6B230000028F3
:102B400024D0012804D002280CD0042814D024E07A
:102B500001208DF80A0008208DF8090001208DF869
:102B600003001AE001208DF80A000C208DF80900FE
:102B700001208DF8030010E001208DF80A001020DC
:102B80008DF8090001208DF8030006E000208DF883
:102B90000A0000208DF80300FFE701A803F056F9B2
:102BA00040460100C9B23800C0B203F0ADF9ADB281
:102BB000280003F09CF9ADB22800012826D0022895
:102BC00028D004282AD008282CD010282ED020283D
:102BD00030D040282ED080282CD0B0F5807F29D04E
:102BE000B0F5007F26D0B0F5806F2FD0B0F5006F24
:102BF0002CD0B0F5805F29D0B0F5005F26D0B0F5BD
:102C0000804F23D0B0F5004F20D02BE006208DF868
:102C1000000028E007208DF8000024E008208DF84F
:102C2000000020E009208DF800001CE00A208DF84B
:102C3000000018E017208DF800001E48006810F40E
:102C4000787F02D001208DF803000CE028208DF859
:102C500000001848006810F47C4F02D001208DF865
:102C6000030000E00DE000208DF8010000208DF849
:102C700002009DF9000040B2FFF75AFC684603F0DD
:102C80005CF9BDE8FF81000080E200E00000FEBFCB
:102C9000341A002000000240080001400C000140EE
:102CA00010000140140001400004024000140240E2
:102CB0000008024000040140012110F01F02914071
:102CC000DFF8582640B2430942F82310704780B518
:102CD0000020DFF84C1648600020DFF8441608603A
:102CE0000020DFF83C160872002003F090FC43F24D
:102CF000F22188420AD0012003F048FD012000F0B3
:102D0000EFFD002000F0ECFD002016E001215FF057
:102D1000805000F007FE012003F038FD03F0BDF9FC
:102D20004FF4807003F0C7FC5FF4003003F0DFF86D
:102D30000120DFF8EC150872012002BDDFF8E40580
:102D4000006810F44030704770B586B004000D0084
:102D50001600E4B2002C0DD0492000F02EFE002811
:102D600001D1002042E05FF4803000F097FD039530
:102D7000049607E05FF4003000F090FD681E0390B9
:102D8000701E0490012000F0A7FD03F086F90020DA
:102D9000029002A803F010F900208DF8070000202F
:102DA0008DF8040000208DF8050000208DF8060045
:102DB00001A9002003F0A6F90D208DF803000520DD
:102DC0008DF8010016208DF8020003208DF8000018
:102DD0006946002003F03BFA43F2F221002003F0A1
:102DE00009FC0120DFF838150872012006B070BD1B
:102DF000DFF834251268120C0260DFF82C25126807
:102E000092B20A607047DFF81805007A704780B503
:102E10000020DFF80C150872012003F0B7FC002039
:102E200000F067FC002000F05CFC002000F054FD86
:102E30004FF6FF71002003F0DDFB01BDF8B5040083
:102E40000D001600DFF8D804007A002801D1002018
:102E50001EE0E4B2182C05DAEDB23C2D02DAF6B22F
:102E60003C2E01DB002013E000208DF803008DF8DC
:102E700000408DF801508DF802606946002003F093
:102E800041F90700FFB2002F01D1002000E001202E
:102E9000F2BD10B5002401F068F940F229418842E2
:102EA00008D103F0CBF9D0F1FF004FF47A71484319
:102EB000000A0400200010BD70B582B004000D00AF
:102EC0001600002C1CD0002D1AD0002E18D0DFF8D0
:102ED0005004007A002806D10020207000202870BD
:102EE000002030700CE06946002003F07EF99DF868
:102EF000000020709DF8010028709DF802003070DD
:102F000073BDF8B504000D0016001F003200290043
:102F10002000FFF7D1FFFFF7BCFF3860F1BDF8B527
:102F200004000D001600DFF8F803007A002801D134
:102F3000002027E0B4F5FA64A4B2642C0BDAEDB2F9
:102F4000002D08D0EDB2132D05DAF6B2002E02D016
:102F5000F6B2202E01DB002014E020008DF80300E3
:102F60008DF801508DF8026003208DF8000069464D
:102F7000002003F06CF90700FFB2002F01D1002000
:102F800000E00120F2BD70B582B004000D00160013
:102F9000002C1ED0002D1CD0002E1AD0DFF880038C
:102FA000007A002806D10020208000202870002010
:102FB00030700EE06946002003F0BAF99DF8030076
:102FC00010F5FA6020809DF8010028709DF802003D
:102FD000307073BD2DE9F84F0400DFF84403007A28
:102FE000002801D100202BE014F03F05A00910F0CB
:102FF0003F06200C10F01F07600D10F01F08200B7B
:1030000010F00F09A00E10F5FA6A2A00D2B23100B2
:10301000C9B23800C0B2FFF711FF8DF80000424678
:10302000D2B24946C9B2504680B2FFF778FF834614
:103030009DF8000010EA0B0F01D0012000E00020F5
:10304000BDE8F28F1CB504000DF106020DF103017D
:103050000DF10200FFF730FF0DF10102694601A8F2
:10306000FFF791FF9DF806009DF8031050EA8110CC
:103070009DF8001050EA01309DF8021050EA01401E
:103080009DF8011050EA4150BDF80410B1F5FA6105
:1030900050EA8160206013BD10B584B00400A048E0
:1030A000007A002801D1002028E05FF4801002F0AF
:1030B0001EFF5FF48010019000208DF808000820AA
:1030C0008DF8090001208DF80A0001A802F0BEFE6B
:1030D00003208DF8000000208DF8010000208DF8FD
:1030E000020001208DF80300684602F026FF002050
:1030F00003F032FA200003F003FA012004B010BDFF
:1031000038B505008648007A002801D1002044E047
:10311000002003F021FA8548854207D34FF47A70E6
:10312000B5FBF0F5AD1E0620040017E0B5F57A6F8B
:1031300007D94FF47A70B5FBF0F5AD1E04200400FA
:103140000CE04FF4004000FB05F0B0F5FA604FF4DE
:10315000FA61B0FBF1F10D0003210C002000FFF734
:103160009BFF4FF4804003F0D8FA5FF4801002F028
:10317000BEFE0320FFF7A0FD00214FF4804003F0C6
:103180005DFA280003F0D8F901214FF4804003F0E4
:1031900055FA012003F0E0F9012032BD6049486092
:1031A0007047E0B55E48007A002801D100202CE08D
:1031B00000214FF4807003F060F95FF4003002F0FA
:1031C00096FE5FF40030019000208DF80800082082
:1031D0008DF8090001208DF80A0001A802F036FEE2
:1031E00029208DF8000000208DF8010000208DF8C6
:1031F000020001208DF80300684602F09EFE0121C6
:103200004FF4805003F01AFA01200EBD7FB5040080
:103210000D0016004248007A002801D1002025E068
:1032200000214FF4807003F028F9012003F030FAF8
:103230000028FAD05FF000400190002002900020AA
:103240008DF803008DF800408DF801508DF8026074
:103250006A464FF48071002003F091F8FFF7A1FF58
:1032600001214FF4807003F008F9012004B070BD13
:1032700010B504002A48007A002801D100200EE091
:10328000E4B2002C05D001214FF4807003F0F5F872
:1032900004E000214FF4807003F0EFF8012010BD2E
:1032A00080B54FF4804003F013FA00280FD01C487B
:1032B0000068002808D01A4800688047002806D116
:1032C000002003F049F902E0002003F045F94FF433
:1032D000804003F022FA5FF4801002F008FE01BD86
:1032E00080B54FF4805003F0F3F9002814D00C4857
:1032F0004068002803D00A484068804704E0002165
:103300004FF4807003F0B9F84FF4805003F005FAE1
:103310005FF4003002F0EBFD01BD000080E200E050
:1033200060210020343802401028004001C5DC0331
:1033300000B587B00121012000F0D6FA01214FF439
:10334000805000F0E0FA05220521324800F0C1F873
:10335000052207212F4800F0BCF8052206212D4840
:1033600000F0B7F802208DF8040003208DF8050066
:1033700000208DF8060002208DF807002020009024
:103380006946244800F04AF88020009069462148A8
:1033900000F044F84020009069461E4800F03EF8D6
:1033A0000020ADF808004FF48270ADF80A0000204C
:1033B000ADF80C000020ADF80E000020ADF81000B4
:1033C0004FF40070ADF812000820ADF81400002092
:1033D000ADF816000720ADF8180002A90E4803F05A
:1033E00071FA01210C4803F08DFA07B000BD10B549
:1033F0000400E4B2210089B207488181C04601215E
:10340000054803F08DFA0028F9D003488089C046AA
:10341000C0B210BD0000024000300140F0B40022F4
:103420000023002400252A00102A49D201259540B6
:103430002B000D681D402C009C423FD105680326DF
:103440001700FFB27F00BE40B543056005680E79E6
:103450001700FFB27F00BE40354305600D79012D96
:1034600002D00D79022D19D1856803261700FFB20D
:103470007F00BE40B543856085684E791700FFB276
:103480007F00BE4035438560858801269640B54360
:10349000858085888E79964035438580C56803266A
:1034A0001700FFB27F00BE40B543C560C568CE7946
:1034B0001700FFB27F00BE403543C560521CB3E722
:1034C000F0BC7047D2B2002A01D0018300E04183F2
:1034D0007047F0B400230024D2B211F00705EDB21A
:1034E000AD0012FA05F52B0089B2CD1000EB850571
:1034F00089B2CE1000EB8606366A0F2711F0070C52
:103500005FFA8CFC5FEA8C0C17FA0CF7BE432E6254
:1035100089B2CD1000EB85052D6A1D432C0089B2C0
:10352000CD1000EB85052C62F0BC704700B585B06E
:103530000121042000F0F6F94FF6FF7002901F20E1
:10354000ADF804000020ADF80C000020ADF8060036
:1035500001A9314803F05EFA0122BDF804102E489B
:103560000185828201212C4803F08CFA0121102070
:1035700000F0C9F90121102000F001FA012110200A
:1035800000F0DFF90021102000F0DBF90023002219
:103590004FF48051214803F019FB1B208DF80000E7
:1035A00000208DF8010000208DF8020001208DF828
:1035B0000300684602F0C1FC022118488182C0461F
:1035C0000020174908800121102000F0D8F905B02B
:1035D00000BD80B50221114803F0DBFA002807D0B6
:1035E00002210E4803F0EEFA00210C484162C04669
:1035F00001BD10B504000221074803F0C6FA0948CE
:103600000068A4B22018084908600221024803F0AB
:10361000B0FA0028F9D010BD0008004000100140A9
:10362000101001402408004034080040DFF8040472
:10363000006850F48070DFF8FC130860DFF8F803CE
:103640000068DFF8F8130840DFF8EC130860DFF8D3
:10365000E4030068DFF8E8130840DFF8D8130860D7
:10366000DFF8D003006830F48020DFF8C81308606A
:10367000DFF8C403006830F47D00DFF8BC13086095
:103680000020DFF8C013086070470021DFF8B8237E
:103690001170DFF8B413087070470021DFF8AC2315
:1036A0001268110031F460410143DFF8A02311607A
:1036B0007047C0B2DFF89813086070470021DFF848
:1036C0008C231268110031F4F851C0B251EA002184
:1036D000DFF8782311607047C0B2DFF87813086014
:1036E00070470021DFF870231170DFF86C13087049
:1036F0007047C0B2DFF864130860704710B452EA34
:1037000001030343DFF85843237010BC7047C0B275
:10371000DFF850130860704751EA0002DFF84833C1
:103720001A7070470021DFF8102312681100890811
:1037300089000143DFF8002311607047DFF8F802C9
:10374000006810F00C0070470021DFF8EC221268CE
:10375000110031F0F0010143DFF8DC221160704705
:103760000021DFF8D4221268110031F4E061014336
:10377000DFF8C422116070470021DFF8BC22126814
:10378000110031F4605151EAC001DFF8AC22116040
:103790007047F0B4002100220023002400250026F9
:1037A000A54F3F6817F00C0739000F00002F06D017
:1037B000042F14D0082F15D00C2F16D039E0A34FAA
:1037C0003F68C7F342373E00012716F1010C17FA94
:1037D0000CF74FF4004C0CFB07F7076038E0A34FE1
:1037E000076035E0A14F076032E0934F3F6817F460
:1037F00070173A00904F3F6817F440073B009C4F0A
:10380000920CBA5C9B0D5B1C8B4F3F6817F48037A2
:103810003C00002C06D1954F07FB02F7B7FBF3F7EE
:10382000076005E0914F07FB02F7B7FBF3F707606E
:103830000EE0864F3F68C7F342373E00012716F17E
:10384000010C17FA0CF74FF4004C0CFB07F707605C
:10385000794F3F6817F0F00739000909854F7F5C01
:103860003D000768EF404760734F3F6817F4E0671B
:103870003900090A7F4F7F5C3D004768EF40876051
:103880006D4F3F6817F460573900C90A794F7F5C64
:103890003D004768EF40C760F0BC7047002110F45E
:1038A0004032B2F5403F09D1624A1268110031F04E
:1038B000C04110F0C04211435E4A11606E4A126866
:1038C00032F440326C4B1A606B4A126810F4403389
:1038D0001A43694B1A607047C0B268490860704764
:1038E000C0B2674908607047C9B2002905D0654A6F
:1038F00012680243634B1A6004E0624A1268824312
:10390000604B1A607047C9B2002905D05E4A126840
:1039100002435D4B1A6004E05B4A126882435A4BD3
:103920001A607047C9B2002905D0584A126802438C
:10393000564B1A6004E0554A12688243534B1A6092
:103940007047C9B2002905D0514A12680243504B52
:103950001A6004E04E4A126882434D4B1A60704769
:10396000C9B2002905D04B4A12680243494B1A607C
:1039700004E0484A12688243464B1A607047C9B255
:10398000002905D0444A12680243434B1A6004E000
:10399000414A12688243404B1A607047C9B20029FD
:1039A00005D03E4A127802433C4B1A7004E03B4A71
:1039B00012788243394B1A70704710B4020000230A
:1039C000002400201100C9B24909C9B20B00012B23
:1039D00003D1184909680C0002E0274909680C0066
:1039E000D2B212F01F010B002100D940C90702D545
:1039F0000121080001E000210800C0B210BC70479E
:103A00001D48006850F080701B4908607047010035
:103A100000200C4A1268C9B20A4202D001221000EA
:103A200001E000221000C0B270471D4908707047C5
:103A30000000000000380240083802400CC0FF8837
:103A4000FEFFFEEE0C38024002380240043802400D
:103A50002000474200004742353802408006474276
:103A60000A380240600047420B3802400024F4004C
:103A70000C0000201800002034380240D8064742CD
:103A8000DC0647421C3802402038024024380240FD
:103A900014380240183802402C3802400D380240D9
:103AA0000E38024080B501214FF40060FFF73AFF65
:103AB0004FF4C07003F034F97F2003F03BF97E200F
:103AC00003F04FF97E2003F052F903F046F900208D
:103AD0008DF8000000208DF8010000208DF8020014
:103AE00001208DF80300684602F027FA01BD80B579
:103AF0007E2003F036F901BD80B503F03EF900BF2A
:103B000001BD000010B440B2002808D50A01294BBD
:103B100040B210F00F04234403F8042C03E00A0120
:103B2000254B40B21A5410BC704738B50400002031
:103B300022490860002021494860E4B24FF4FA406D
:103B400000FB04F525F07F40401E1D490860002160
:103B50005FF0FF30FFF7D6FF00201A49086007200A
:103B60001949086031BDC0B24FF4FA4101FB00F1C0
:103B700021F07F42521E124B1A6070470F490860B5
:103B800070470E494860704780B510480068401C77
:103B90000E49086009480068002802D007480068FC
:103BA000804706484068002802D0044840688047A3
:103BB00001BD000018ED00E000E400E06C210020F1
:103BC00014E000E018E000E010E000E0B421002084
:103BD00030B585B0040000208DF80D0000208DF870
:103BE0000C0000208DF8030000208DF8020000205A
:103BF0008DF8010000208DF80000250000200290C3
:103C00000020019002AB0DF10D0203A90DF103009C
:103C1000FFF777F902989DF803103C229DF80C30CD
:103C200002FB01313C229DF80D3002FB01314FF4C3
:103C30007A7202FB0100029014F1010F0AD0002CED
:103C400008D05A480068201AFFF75AFA002801D114
:103C5000002052E05648006830F0020054490860E5
:103C60005448006850F000705249086000F07AF93A
:103C7000012002F011FE0121012002F0E2FD00F01E
:103C800080F94B48006850F00200494908604FF441
:103C9000804002F01DFD002802D0B4F57A6F2BD9C8
:103CA000002002F059FC01AB0DF102020DF10101FF
:103CB0006846FFF726F901989DF800103C229DF810
:103CC000013002FB01313C229DF8023002FB013140
:103CD0004FF47A7202FB0100019001980299884228
:103CE00004D301980299401A050005E00198324971
:103CF00008180299401A0500280005B030BD80B5AB
:103D00002B48006830F00200294908602948006803
:103D100050F000702749086000F024F9012002F0FB
:103D2000BBFD0121012002F08CFD00F02AF92048A2
:103D3000006850F002001E49086001BD10B5040083
:103D40002000FFF7DDF900211C484162C046012137
:103D50001A4802F097FE1648006830F00200144935
:103D600008601448006850F0007012490860012093
:103D700000F050F9012002F08FFD0121012002F036
:103D800048FD00F05DF90A48006850F0020008495B
:103D900008600021094802F075FE094800684EF6E7
:103DA0006B6148430749B0FBF1F010BD08000020EB
:103DB00010E000E004ED00E0005C2605001001408A
:103DC0002410014040420F00DFF88C04DFF88C140F
:103DD0000860704780B50020DFF884140870002068
:103DE000DFF87C1448605F20FFF7E7FD002807D06C
:103DF000DFF86C04007850F00100DFF864140870FC
:103E00005D20FFF7DAFD002804D15E20FFF7D5FD25
:103E1000002807D0DFF84804007850F00200DFF8EF
:103E2000401408705C20FFF7C8FD002807D0DFF8B9
:103E30003004007850F00400DFF8241408705B2090
:103E4000FFF7BBFD002807D0DFF81404007850F01E
:103E50000800DFF80C1408705A20FFF7AEFD0028A8
:103E600007D0DFF8FC03007850F01000DFF8F01303
:103E70000870FFF7C5FD00F09BF901BD70B50400A7
:103E80000D001600FFF7D2FB012002F083FF012195
:103E90005FF08050FFF746FD4FF4C05002F090FCF9
:103EA000102002F0ECFC0028FAD12000FFF7F5FB0F
:103EB0000020FFF737FCFFF741FC0028FBD1EDB2F3
:103EC000002D02D08020FFF73FFC0020FFF704FC0C
:103ED0000020FFF7DAFBF6B2002E02D10020FFF738
:103EE00000FC0020FFF705FC70BDDFF878030068D8
:103EF000DFF86C134862DFF870030068DFF86013C6
:103F0000C862DFF868030068DFF854138862DFF8DE
:103F100060030068DFF848130863DFF8580300689F
:103F2000DFF83C138863DFF850030068DFF83013D4
:103F300048630020DFF82C1308600120DFF83013FD
:103F400008600020DFF8201308601020DFF81C1341
:103F500008600020DFF81C1308601020DFF8181339
:103F60000860704780B5012002F022FC002002F0BA
:103F70001BFC012002F020FC0020FFF7BAFB01200F
:103F800002BD80B502F0ADFF002808D00120FFF788
:103F90007CFB3120FFF711FD002808D1F9E7012053
:103FA000FFF79AFB2120FFF708FD0028FAD0012037
:103FB000FFF7ADFBDFF8C40200688001FAD5DFF837
:103FC000C002006880088000DFF8B4120860DFF8E3
:103FD000B002006850F00300DFF8A4120860DFF8B8
:103FE000A002006810F00C000C28F8D1002002F0AC
:103FF000F3FB002002F0E0FB002002F0CBFE0120EA
:1040000002F04AFC012002F0CFFB0120FFF771FB18
:10401000012002BD10B50400002002F0C9FB002001
:1040200002F0C2FB012002F0C7FBFFF75EFF220097
:10403000D2B201214FF40050FFF720FF012010BD44
:1040400080B54FF4006002F0BBFB102002F017FCBB
:104050000028FAD10120FFF718FB3120FFF7ADFC53
:104060000028FAD00120FFF737FB2120FFF7A5FC3D
:104070000028FAD002F035FF002802D10120FFF716
:1040800051FB0020FFF760FB0020FFF775FB0020CD
:10409000FFF766FB402204210120FFF72FFB0120E0
:1040A000FFF735FB0120FFF724FBDFF8D0010068A4
:1040B0008001FAD5DFF8A801406ADFF8A81108608E
:1040C0006748C06A684908606548806A674908604F
:1040D0006348006B664908606148806B6549086009
:1040E0005F48406B6449086065480068800880004C
:1040F000634908606248006850F003006049086046
:104100005F48006810F00C000C28F9D1002002F084
:1041100063FB002002F050FB002002F03BFE012078
:1041200002F042FB012002F0B7FB012002BD4C4827
:10413000007870471EB402000020524B1C680094A7
:104140005C6801945C690294C9B200290AD0C0B2CB
:104150000C2807DA6C46C0B2245CC0B21454491E65
:10416000401CF1E7C0B21EBC704780B502F0BAFF38
:1041700080B202BD38B50400E4B2012C12D1012294
:1041800008214148FEF740FC03F0E3F80500002059
:104190002871002D0BD0012320220121280003F0DB
:1041A00016F904E0002208213748FEF72DFC31BD46
:1041B000E0B501215FF08050FFF7B4FB4FF4C06021
:1041C00001F0B6FE01208DF8000000208DF80100FE
:1041D00000208DF8020001208DF80300684601F0F0
:1041E000ACFE5FF4803001F082FE5FF4803001901D
:1041F00000208DF8080010208DF8090001208DF8AE
:104200000A0001A801F022FE202002F0C3FA0120DA
:1042100002F0CAFA1D481249486007BD80B55FF434
:10422000803001F057FE002815D00D484068002866
:104230000DD0042002F023FB012804D101200849FD
:104240004968884703E000200549496888475FF4CA
:10425000803001F04CFE01BD0400FA050CED00E0D9
:10426000F81F00201C380240243802402038024049
:1042700028380240303802402C38024000380240D2
:10428000083802405000F81F000002407541000845
:1042900080B50020DFF8981A88700020DFF8901AA7
:1042A00048600020DFF8881A88600020DFF8801A54
:1042B00088750020DFF8781A08750020DFF8701A7A
:1042C00048700020DFF8681A08700020DFF8601AD4
:1042D00081F864000020DFF8581A81F86600002099
:1042E000DFF84C1A81F8650001200090DFF8403AB1
:1042F0000FF2D122DFF83C1ADFF83C0AFDF73DFA55
:1043000001220FF27521DFF8340AFDF71CFB02F0E1
:10431000E8FD002804D00520DFF8141A487503E0F2
:104320000420DFF80C1A487500F001F801BD80B5D3
:10433000FEF7CDFC002801D1002048E0FEF7FEFC8E
:10434000B0F5803F2FD10320DFF8E419087549202C
:10435000FFF733FB012809D10220DFF8D419887058
:104360000220DFF8CC1981F864002BE00120DFF88F
:10437000C019887002F0E8FD00224FF47A71DFF86E
:10438000BC09FDF709FB1020FDF7B1FF0120DFF8A4
:10439000A01981F86400DFF89809407D052811D143
:1043A00000F0E2FA0EE00220DFF884190875DFF869
:1043B0009019DFF89009FEF71BFD0220DFF8701955
:1043C00081F86400FEF768FEFEF7EBFE012002BDF7
:1043D00080B50120DFF8581981F86400DFF8500932
:1043E000807802281ED00121032002F083FD0028DE
:1043F00018D10120DFF83819887002F0A5FD0022DD
:104400004FF47A71DFF83409FDF7C6FA1020FDF792
:104410006EFFDFF81C09407D052801D100F0A4FAE9
:10442000002016E0FEF7EFFC002804D1FF227F21D8
:104430000120FEF789FC0220DFF8F41881F86400FF
:104440000220DFF8EC1888700320DFF8E418087504
:10445000012002BD80B500F082F8002806D00420BB
:10446000DFF8CC1881F86400002002E000F08CF83E
:10447000012002BD0100C9B2080000280CD00128AB
:104480000AD002280AD0032806D004280AD005281A
:1044900002D010280AD015E0002014E0DFF89008C0
:1044A000406810E0DFF8880880680CE0DFF88008DA
:1044B00090F86600002803D0DFF87408807D02E0E1
:1044C000002000E0002070471CB504004FF480700D
:1044D000009002208DF8040000208DF807000320D2
:1044E0008DF80500E4B22000022814D0032823D060
:1044F000062832D16946DFF85008FEF78FFF002208
:104500000821DFF84408FEF7E4FF00210120FFF74F
:1045100003F9012022E06946DFF82C08FEF77EFF50
:1045200000220821DFF82008FEF7D3FF0021062033
:10453000FFF7F2F8012011E06946DFF80C08FEF7FA
:104540006DFF00220821DFF80008FEF7C2FF0021FE
:104550000720FFF7E1F8012000E0002016BDDFF89A
:10456000D0070078002801D1002000E0012070472A
:1045700080B5FEF748FC02BD10B504000221DFF84B
:10458000B807FDF755F910BD80B5FEF740FC0020D7
:10459000DFF89C1781F864000020DFF8941788701A
:1045A00001BD0020DFF88817497D052901D150F0B1
:1045B0000100DFF87C17097D032901D150F00200CA
:1045C000C0B2704738B50400DFF86C07FDF74AF950
:1045D0000500E80702D500F054F803E0A80701D56C
:1045E00000F097F8280728D500F0CBF8002805D16F
:1045F0000821DFF84407FDF71BF91EE000BFDFF8D4
:10460000300790F86400012817D1DFF8240780787C
:10461000002812D1DFF818070269DFF81407C16813
:104620000020FEF791FB002802D1FFF7ADFF04E068
:104630000220DFF8FC1681F86400E8061CD500F0C3
:10464000A0F8002805D11021DFF8EC06FDF7F0F8FE
:1046500012E0DFF8DC0690F86400042805D0DFF8EB
:10466000D00690F86400002805D1FFF778FF0028F5
:1046700001D1FFF789FF00BFDFF8BC06FDF7BEF8E8
:1046800031BD80B51020FDF742FEDFF8B006FDF722
:104690009EF90220DFF898168870DFF894060078FB
:1046A00000070FD50020DFF888160870DFF89C0699
:1046B0000068002803D0002000F0F8F802E0012094
:1046C00000F0F4F8DFF8680690F86400012813D1D0
:1046D000FF227F210120FEF737FB002802D1FFF7E0
:1046E00053FF15E00320DFF8481608750220DFF8B5
:1046F000401681F864000BE0DFF8340690F864009F
:10470000042805D1FFF72BFF002801D1FFF73CFF5C
:1047100001BD80B5DFF8180690F8650000281DD0AF
:10472000DFF80C0690F86400012817D1DFF80006C6
:104730000269DFF8FC05C1680020FEF705FB0028D0
:1047400002D1FFF721FF0BE00220DFF8E41581F82A
:1047500064000220DFF8D815087501E0FFF714FFA8
:10476000DFF8CC050078000703D50020DFF8C0157E
:1047700008701020FDF7CBFDDFF8C005FDF727F925
:1047800001BD80B5DFF8A8050078002809D0012810
:1047900008D0022820D010283AD0202800F08280AB
:1047A00082E081E0DFF888054078012806D012D346
:1047B00003280AD009D3042808D00CE00220DFF82F
:1047C0007015487002F01BFC05E004E002F066FC86
:1047D00000F051F9FFE767E000F0EFF8002816D08D
:1047E0000020DFF84C1508700120DFF8441581F82F
:1047F0006500DFF85C050068DFF834150861DFF854
:1048000054050068DFF82815C86001204DE04BE032
:10481000DFF81C05407801280AD042D303283AD09B
:1048200039D305280ED037D3072834D033D338E016
:104830000220DFF8FC144870DFF81C05006802F065
:10484000FAFB2EE00620DFF8E8144870DFF80805D0
:104850000068DFF8081591F900100818212814D213
:10486000DFF8F4040068DFF8F41491F90010081878
:1048700000280AD0DFF8E0040068DFF8E01491F9BE
:104880000010081802F0D7FB04E0DFF8CC04006841
:1048900002F0D1FB05E004E002F000FC00F023F997
:1048A000FFE701E0002000E0002002BD10B5040099
:1048B000FFF755FE002856D10020DFF8901408605D
:1048C0000020DFF89C1408700020DFF898140860BE
:1048D0001020DFF85C1408700120DFF854144870D1
:1048E0000020DFF884140870E4B2002C11D00020FE
:1048F000DFF8781408600020DFF85C1408602020DE
:10490000DFF86C140870DFF86C04DFF86C140860D2
:104910001DE0DFF85804006805280BD3DFF84C04CD
:104920000068001FDFF8301408600820DFF840142A
:10493000087007E00020DFF8201408602020DFF86E
:1049400030140870DFF82C04DFF82C140860002005
:10495000DFF8DC1381F866001021DFF8DC03FCF7D8
:1049600067FFC046C04610BD80B5FFF7F8FD0028C0
:1049700022D10120FEF7BDFE4120FFF71EF80028DE
:10498000FAD00220DFF8A81308750020DFF8EC1336
:1049900008600020DFF8C81308700120DFF89013CA
:1049A00008700120DFF8881348700821DFF88803B9
:1049B000FCF73EFF02F0EFFA01BDDFF8C403006828
:1049C000002856D0DFF868034068DFF8B4331B686E
:1049D000B0FBF3F00100DFF8A803006800FB01F072
:1049E0000200DFF84C034068904207D2DFF8400332
:1049F0004068101ADFF88C33186006E0DFF83003E7
:104A00004068801ADFF87C331860DFF878030068AC
:104A100000280ED1DFF868030068DFF8383318602B
:104A2000DFF82C0301600120DFF854331860012007
:104A300020E0DFF850030068DFF84C331B68984231
:104A40000ED2DFF840030068DFF83C331860DFF86F
:104A500030030068DFF8FC321860DFF8F402016010
:104A6000DFF81C030068401EDFF8143318600020D4
:104A700000E00120704780B5B948007800280ED0CA
:104A8000DFF8F8020068DFF804130968DFF8002394
:104A90001268B1FBF2F110EBC100B8490860B048F0
:104AA0000078401CAE490870AD4800780B2803DA46
:104AB00001209F49487015E0B04800680A21B0FB0A
:104AC000F1F0AE490860AD4800689949486002209D
:104AD00097490870AF49B04802F098F800210820C3
:104AE000FEF711FF01BD80B59D480078002809D070
:104AF00096480068A64909684FF4FA5202FB010083
:104B00009249086096480078401C9549087094487E
:104B10000078062803DA01208549487058E09F484C
:104B2000008DC04680B2801C884909680522B1FB0F
:104B3000F2F1484385490860944800688349096850
:104B4000884207D28148006890490968401A944910
:104B5000086006E08D4800687C490968401A904961
:104B600008608F4800688449096888420FD28C48E1
:104B7000006881490860784800687C49086073488B
:104B80000068784908607748006869498860724819
:104B90000068401C7049086073480078401C7249E6
:104BA00008707148007872490978884203D26A48CF
:104BB0000068202803D320205D49087008E0012008
:104BC0005B49487000206649087000205F49086012
:104BD00001BD80B50221704801F0DBFF002843D001
:104BE00002216D4801F0EEFF51484078022803D0C1
:104BF0004F484078062808D16748406BC04669494D
:104C0000088003204A4948702EE04948407803282C
:104C100003D047484078072826D15F48406BC046FC
:104C200061490880002202215B4801F097FF5D483E
:104C300000885D490988884207D25B480088594945
:104C40000988401A5249086009E04FF6FF7055493B
:104C50000988401A5449098808184D4908603448A1
:104C60004078401C3249487001BD80B502215FF098
:104C7000804001F08EFF002847D002215FF0804085
:104C800001F0A0FF2A484078022803D02848407845
:104C9000062809D15FF08040406BC046414908803A
:104CA00003202349487030E021484078032803D08E
:104CB0001F484078072828D15FF08040406BC046ED
:104CC00039490880002202215FF0804001F046FF50
:104CD0003448008834490988884207D2324800881D
:104CE00030490988401A2A49086009E04FF6FF70E8
:104CF0002C490988401A2C49098808182449086059
:104D00000B484078401C0A49487001BD80B502201C
:104D1000FEF77DFE01280AD101210748FCF788FD36
:104D200000210220FEF73AFE0220FEF77EFE01BDC2
:104D3000401E002060EE0008841E0020681E002037
:104D4000501E00204C1E0020000002409021002038
:104D50008821002084210020A4210020C7210020D8
:104D6000C4210020A0210020C62100209C21002079
:104D7000C521002018DDF5059821002080210020A4
:104D800004000020A82100200000002028000020AE
:104D90008C2100200000F4FF000C014000040040C2
:104DA00094210020C0210020C22100201FB5040052
:104DB0000020ADF80C0000940020ADF804000020A5
:104DC000ADF806000020ADF808000C20ADF80A0090
:104DD0006946B54802F0E6FB1FBD80B502224021BE
:104DE000B248FDF77FFE01224021B048FDF78BFD60
:104DF0002021AD4802F08BFC01BD80B5402001F0C0
:104E000069F8012806D1402001F071F84021A74837
:104E100000F015F800224021A448FDF763FE402170
:104E2000A248FDF7C5FDA248008801214FF480404B
:104E3000FEF769FD20219C4802F069FC01BD38B5F0
:104E400004000D009B48C068002802D09948C06843
:104E5000804731BD38B504000D0096480460954880
:104E6000C560200000280AD0012240F225518E485A
:104E700002F022FC01218C4802F00CFC03E000212E
:104E8000894802F007FC31BD70B504000D00894867
:104E9000806800281AD1874885602000002815D036
:104EA00084484460834840688047060036B2002E3C
:104EB0000CD4310089B27C4802F0FAFB012240F2A6
:104EC0002771794802F0F8FB012000E0002070BD56
:104ED00010B57548008880B277490860724800882C
:104EE00040061AD575480088400616D57148806876
:104EF000002808D06F488068804700206D494860CE
:104F000000206C498860002240F22661664802F069
:104F1000D3FB4021644802F0FAFB63480088000696
:104F200027D566480088000623D5624840680028D7
:104F300019D0604840688047040024B2002C05D492
:104F4000210089B2584802F0B3FB12E0002240F27F
:104F50002771554802F0B0FB012240F22661524809
:104F600002F0AAFB05E0002240F227714E4802F051
:104F7000A3FB4D48008880061BD54D48048820219E
:104F8000494802F0C4FB4C480078800707D54948DF
:104F9000C068002802D04748C068804710E04548F4
:104FA0000068002804D02000C0B242490968884740
:104FB00006E03F4804884FF480713B4802F0A7FBAD
:104FC00010BD10B588B0040001210120FEF78CFC53
:104FD00001210120FEF788FC01214FF48040FEF7FB
:104FE00092FC02208DF804004FF4806000900320B2
:104FF0008DF8050000208DF8060001208DF80700CF
:1050000069462F48FEF70AFA02208DF804004FF493
:105010000070009003208DF8050000208DF8060038
:1050200001208DF8070069462548FEF7F7F90722A9
:105030000A212348FEF74DFA072209212048FEF7EE
:1050400048FA0020ADF8180003940020ADF81000D5
:105050000020ADF812000020ADF814000C20ADF8CF
:10506000160003A9104802F09DFA25208DF80800CB
:1050700000208DF8090000208DF80A0001208DF82D
:105080000B0002A800F059FF00200A490860002028
:105090000849486000200749C8600A4A402103487F
:1050A000FDF77CFA08B010BD003801400004024052
:1050B0000438014034210020B82100200C38014080
:1050C000000002403F4E000810B50020DFF85C1DD4
:1050D00081F84D000823DFF8502C0121002002F058
:1050E00021FB04000020DFF8441D81F85400E4B2E5
:1050F000002C2CD1DFF8340D007F012827D1DFF8F8
:105100002C0D407F00280DD0DFF8200D407F0128B6
:1051100008D0DFF8180D407F022803D00020DFF808
:105120000C1D4877DFF8040D90F84C0050F001009A
:10513000DFF8F81C81F84C00DFF8F00C90F84D0017
:1051400050F00100DFF8E41C81F84D0019E000F098
:10515000E5FD0020DFF8D41C4877DFF8D00C90F88C
:105160004C0010F0FE00DFF8C41C81F84C00DFF8A2
:10517000BC0C90F84D0050F00100DFF8B01C81F835
:105180004D000823DFF8A82C0721002002F0CAFAFE
:105190000400E4B2002C19D1DFF8900C807C0128C7
:1051A00014D1DFF8880C90F84C0050F02000DFF8A4
:1051B0007C1C81F84C00DFF8740C90F84D0050F026
:1051C0002000DFF8681C81F84D0015E000F0F4FBCA
:1051D000DFF8580C90F84C0010F0DF00DFF84C1CA2
:1051E00081F84C00DFF8440C90F84D0050F020009E
:1051F000DFF8381C81F84D001A23DFF8382C022123
:10520000002002F08FFA0400E4B2002C1AD1DFF87B
:105210001C0C90F82400032814D1DFF8100C90F82F
:105220004C0050F00200DFF8041C81F84C00DFF85D
:10523000FC0B90F84D0050F00200DFF8F01B81F8F5
:105240004D0024E0E4B2002C0BD1DFF8E00B90F825
:105250002400012805D10020DFF8D01B81F83B0095
:1052600015E000F063FDDFF8C40B90F84C0010F07F
:10527000FD00DFF8B81B81F84C00DFF8B00B90F8A8
:105280004D0050F00200DFF8A41B81F84D000C2304
:10529000DFF8A42B0321002002F044FA0400E4B25A
:1052A000002C1AD1DFF8840B90F84000012814D1AB
:1052B000DFF8780B90F84C0050F00400DFF86C1B1E
:1052C00081F84C00DFF8640B90F84D0050F00400BA
:1052D000DFF8581B81F84D0015E000F013FDDFF8F2
:1052E0004C0B90F84C0010F0FB00DFF8401B81F8ED
:1052F0004C00DFF8380B90F84D0050F00400DFF858
:105300002C1B81F84D001123DFF8202B05210020F4
:1053100002F008FA0400E4B2002C19D1DFF80C0BFB
:105320000078012814D1DFF8040B90F84C0050F0FD
:105330000800DFF8F81A81F84C00DFF8F00A90F85E
:105340004D0050F00800DFF8E41A81F84D0015E038
:1053500000F047FBDFF8D40A90F84C0010F0F7009B
:10536000DFF8C81A81F84C00DFF8C00A90F84D0049
:1053700050F00800DFF8B41A81F84D0010BD70B489
:1053800003000020D2B2182A70DB0124E4B20D5DC4
:105390001D70641CE4B20D5D9D71641CE4B20D5D72
:1053A0005D71641CE4B20D5DE4B201EB0406767835
:1053B00055EA06251D81A41CE4B20D5DE4B201EBA3
:1053C0000406767855EA06255D81A41CE4B20D5DDD
:1053D0001D74641CE4B20D5D5D74641CE4B20D5D6B
:1053E0009D74641CE4B20D5DDD74641CE4B20D5D5B
:1053F0001D75641CE4B20D5D5D75641CE4B20D5D49
:105400009D75641CE4B20D5DDD75641CE4B20D5D38
:105410009D73641C00259D73E4B20D5DDD73641CF7
:10542000E4B20D5DE4B201EB0406767855EA062598
:105430009D81A41CE4B20D5D1D71641CE4B20D5D80
:10544000EDB26D0915F001055D70641CE4B20D5DEF
:105450001D76641C641CE4B20D5DE4B201EB04062D
:10546000767855EA06255D8001252800C0B270BC1B
:1054700070470100DFF8B40990F825000870DFF8E4
:10548000AC0990F832004874DFF8A00990F83300B6
:105490008874DFF8980990F83400C874DFF88C0934
:1054A00090F835000875DFF88409008D0881DFF871
:1054B0007C09408D4881DFF8740990F837008875C1
:1054C000DFF8680990F830008873DFF8600990F819
:1054D0002F00C873DFF8540990F83800C875DFF85A
:1054E0004C0990F831000874DFF8400990F8270063
:1054F0008871DFF83809808D8881DFF8300990F8ED
:1055000036004875DFF8240990F826004871DFF866
:105510001C0990F83A000871DFF8100990F839007A
:105520000876DFF8080990F82E00C0B2400910F0A4
:1055300001004870DFF8F408808F4880DFF8EC083D
:1055400090F84C00C0B2400810F00100704770B4F1
:1055500003000020D2B2062A18DB0124E4B20D5D5C
:105560009D70641CE4B20D5DE4B201EB0406767834
:1055700055EA06251D80A41CE4B20D5D9D80641CC7
:10558000E4B20D5DDD80641C01252800C0B270BC52
:105590007047F8B504000D00EDB2062D2FDB002694
:1055A0003000461CC0B2205C002801D0012700E07A
:1055B0000027F6B2A05DDFF874188875761CF6B285
:1055C000A05DF6B204EB0601497850EA0120DFF84D
:1055D0005C188882B61CF6B2A05DDFF85018C8755A
:1055E000761CF6B2A05DDFF844180876761CFFB290
:1055F000002F02D000F061FB02E0012000E000205B
:10560000F2BD0100DFF82408807D8870DFF81C08F7
:10561000808A0880DFF81408C07D8880DFF80C08D5
:10562000007EC880DFF8040890F84C00C0B2400942
:1056300010F00100704710B40200002089B2062962
:1056400020DBDFF8E8379B7DC0B21354401CDFF845
:10565000DC379B8AC0B21354DFF8D0379B8A9BB2E9
:105660001B0AC0B202EB00046370801CDFF8BC3779
:10567000DB7DC0B21354401CDFF8B0371B7EC0B2D4
:105680001354401CC0B210BC7047020092B2012AF1
:1056900006D1DFF89807B0F948000860012000E063
:1056A0000020704710B40200002089B21829C0F20F
:1056B000B480DFF8783793F82530C0B21354401C1B
:1056C000DFF8683793F82730C0B21354401CDFF876
:1056D0005C3793F82630C0B21354401CDFF84C37C7
:1056E0001B8DC0B21354DFF844371B8D9BB21B0ACD
:1056F000C0B202EB00046370801CDFF830375B8DB2
:10570000C0B21354DFF824375B8D9BB21B0AC0B2C2
:1057100002EB00046370801CDFF8103793F831301F
:10572000C0B21354401CDFF8043793F83230C0B2D3
:105730001354401CDFF8F43693F83330C0B21354DE
:10574000401CDFF8E83693F83430C0B21354401CE4
:10575000DFF8D83693F83530C0B21354401CDFF868
:10576000CC3693F83630C0B21354401CDFF8BC3648
:1057700093F83730C0B21354401CDFF8B03693F8BA
:105780003830C0B21354401CDFF8A03693F83030E4
:10579000C0B21354401CDFF8943693F82F30C0B2D7
:1057A0001354401CDFF884369B8DC0B21354DFF8CD
:1057B0007C369B8D9BB21B0AC0B202EB0004637067
:1057C000801CDFF8683693F83A30C0B21354401C9E
:1057D000DFF8583693F82E30C0B21354401CDFF86F
:1057E0004C3693F83930C0B21354401CDFF83C36C5
:1057F00093F83B30C0B21354401CDFF830369B8F17
:10580000C0B21354DFF82436B3F93C309BB21B0A04
:10581000C0B202EB00046370801CC0B210BC7047C1
:10582000F8B504000D000026EDB2182DC0F2C280BC
:1058300000273800471CC0B2205C002801D0012698
:1058400000E00026FFB2E05DDFF8E01581F82500FA
:105850007F1CFFB2E05DDFF8D41581F827007F1CC4
:10586000FFB2E05DDFF8C41581F826007F1CFFB2AF
:10587000E05DFFB204EB0701497850EA0120DFF850
:10588000AC150885BF1CFFB2E05DFFB204EB070159
:10589000497850EA0120DFF894154885BF1CFFB213
:1058A000E05DDFF8881581F831007F1CFFB2E05D14
:1058B000DFF8781581F832007F1CFFB2E05DDFF879
:1058C0006C1581F833007F1CFFB2E05DDFF85C15DA
:1058D00081F834007F1CFFB2E05DDFF8501581F8DD
:1058E00035007F1CFFB2E05DDFF8401581F836001F
:1058F0007F1CFFB2E05DDFF8341581F837007F1CB4
:10590000FFB2E05DDFF8241581F838007F1CFFB29C
:10591000E05DDFF8181581F830007F1C0020DFF80B
:105920000C1581F83000FFB2E05DDFF8001581F85A
:105930002F007F1CFFB2E05DFFB204EB0701497846
:1059400050EA0120DFF8E4148885BF1CFFB2E05D57
:10595000DFF8D81481F83A007F1CFFB2E05DDFF871
:10596000CC1481F82E007F1CFFB2E05DDFF8BC1480
:1059700081F839007F1CFFB2E05DDFF8B01481F8D8
:105980003B007F1CFFB2E05DFFB204EB07014978EA
:1059900050EA0120DFF894148887BF1C00F024FA35
:1059A00000F030FAF6B2002E02D000F098F902E0D2
:1059B000012000E00020F2BD0120DFF8701488749F
:1059C0000420DFF8681488750020DFF860148882EE
:1059D0000020DFF8581408760020DFF85014C8754E
:1059E00070470020102805DADFF8401401444870A1
:1059F000401CF7E70120DFF8341408707047DFF827
:105A00003C047047F8B504000D00EDB2102D1DDB0D
:105A10000026F6B2102E08DAF6B2A05DDFF80C14FC
:105A2000F6B231444870761CF3E70120DFF8FC132E
:105A300008701123DFF8F4230521002001F09CFEFB
:105A40000700FFB2002F01D1012000E00020F2BDCD
:105A50000200002089B210290BDBC0B2102808DA3E
:105A6000DFF8C833C0B203445B78C0B21354401CA3
:105A7000F3E7C0B2704738B504000D00A4B2012CA2
:105A800015D10120DFF8A41381F84000DFF89C0352
:105A9000A0F848500C23DFF8A0230321002001F0D8
:105AA0006BFE002801D1012002E0002000E0002070
:105AB00032BDDFF8780390F82E0010F00100704737
:105AC000DFF8680390F82E00C0B2800810F00100E3
:105AD0007047DFF8580390F82E00C0B2400810F06D
